:020000040000FA
:100000005EEF13F01200FFFF04EF08F01200FFFF95
:10001000FFFFFFFFFFFFFFFF0CEF08F01200FFFFE5
:10002000FFFFFFFFFFFFFFFFFFFFFFFFFFFFFFFFE0
:10003000FFFFFFFFFFFFFFFFFFFFFFFFFFFFFFFFD0
:10004000FFFFFFFFFFFFFFFFFFFFFFFFFFFFFFFFC0
:10005000FFFFFFFFFFFFFFFFFFFFFFFFFFFFFFFFB0
:101000005EEF13F01200120090EF10F012000000DB
:1010100000FFFFFFFFFFFFFF92EF10F01200010043
:101020000E1000007F0100000300000067EC0EF0CE
:10103000A0940F015F6B626A536BB0EC0DF0E6ECAD
:101040000DF0DF6AEEEC0DF003E296EC0DF0FAD74E
:10105000648C0F015C6B6498649C62A607D06296F6
:101060000101586B5D6B5E6B5F6BF7D70101010E81
:10107000716F726F736B746B656BDF6A030EDF5C8D
:1010800011E2EA6ADF346AEC0EF0EA22EE6AED6AF7
:10109000EA6ADF3471EC0EF0EA22EE6AED6AA6EC41
:1010A0000DF0ECD70101080E4E6F020E4F6F0F01CD
:1010B000160E536F0201300E026F020E036F080E00
:1010C000016F840E006F0101416B406BE55270EFC0
:1010D0000DF067EC0EF0010140510BE1646A606AAB
:1010E000E6EC0DF064B602D06486FCD70101010E77
:1010F000406F400508E164BA06D0626A606A6080A9
:101100006088020E406F6250040B05E06050040BD3
:1011100002E0629426DB64B245D06250010B08E025
:101120006050010B05E082DF0101040E406F629008
:101130006250100B05E06050100B02E008DB629873
:1011400062AC0FD060AC05D006EC0EF0730E5DEC17
:101150000DF0629C01016F5101E06F076F5101E1D9
:10116000F0D86250200B04E06050200B01E0DEDA82
:101170006250020B0CE06050020B09E006EC0EF02E
:10118000E6687F0EE66E78EC0EF00F015F6B040EE2
:101190000101E76E4019E8AE02D0E73402D0E75013
:1011A000405D02E2A1942ED060A62BD0DF6A040E2F
:1011B000DF5C27E262A625D063CF66F101016651AC
:1011C000780BE842E842E842676F629666B504D061
:1011D00067517FEC0EF003D0675184EC0EF0EA22E9
:1011E000EF70675102E1C9DA0AD0000EE66EE66AD6
:1011F000660EE66E010EE66E720E5DEC0DF0DF2AF5
:10120000D6D7A194E55270EF0DF039EC0EF0FD0E3B
:10121000DBA403D0E66AF6EC0DF0FD0EDBA204D0F1
:10122000010EE66EF6EC0DF0FE0EDB50116A530F68
:10123000106E0F0EE0EC0DF061EC0DF0FD0EDBCF4B
:10124000EFFF020EE15C02E2E16AE552E16E70EF4F
:101250000DF039EC0EF0FD0EDB5003E058EC0DF014
:1012600002D087EC0DF0CCEC0DF0D9CFE9FFDACF4E
:10127000EAFFEE50ED1003E1F36AF46A28D061EC66
:101280000DF093EC0EF0FB0EDBCFEEFFFC0EDBCF90
:10129000EDFF61EC0DF0EE52FA0EDBCFEFFF400EEA
:1012A00089EC0EF0880E98EC0EF0FD0EDB5003E09A
:1012B00058EC0DF002D087EC0DF0EA22EF74DECF8F
:1012C00010F0DDCF11F010C0F3FF11C0F4FF020EDB
:1012D000E15C02E2E16AE552E16E70EF0DF039EC9B
:1012E0000EF0FE0EDB5003E147EC0EF009D08CEC63
:1012F0000DF027EC0EF08CEC0DF0010F27EC0EF04A
:10130000020EE15C02E2E16AE552E16EE9D3E3DB61
:1013100064A816D058EC0EF0400EEE16EE6AEE6A97
:10132000EE6A58EC0EF0EE7CC3DBEA22EF74400E5E
:10133000106E58EC0EF01050EF1658EC0EF0EF7CDB
:10134000CFD30101715122E1010E716F72511EE183
:10135000010E726F020E555D07E1B8DBEE52EF6AC7
:10136000B5DBC80EEF6E1200550510E1686BC4DBEB
:10137000EE52080EEF6EC0DB33EC0EF0BDDB840ED8
:10138000EF6E010E686F90DB800EEF6E12000101B0
:10139000736B746B020E555D06E18DEC0EF0B1DBE4
:1013A00022EC0EF010D059510201365D01015A5164
:1013B0000201375904E236C259F137C25AF161D8F5
:1013C00085DB9FDB83DBC80EEF6E120039EC0EF07D
:1013D000000EDE6E020EDD6E9FDB040DF4CF11F009
:1013E000D9CFE9FFDACFEAFFF350EE261150ED2214
:1013F00068DBEF9EFD0EDB5002E189DB01D058DB9C
:10140000EA22DECFEEFFDDCFEDFF5BDBEF9C59DBA9
:10141000040EE926000EEA22EF8C020EE15C02E2E5
:10142000E16AE552E16E5CD36498010158BF0DD0CA
:101430005DAF09D0020E556F745101E1A8DF0101C3
:10144000726B716B120047EF0EF0020130AF0DD0DE
:101450000101010E556F735101E199DF0101726BBA
:10146000716B70510DE1A1EF09F00101020E556F92
:101470001BDB840EEF6E726B716B705101E161DFEB
:10148000120067EC0EF0080EDF6E0101595D000ED0
:101490005A590AE259C1DFFF545102E1010E03D04B
:1014A000540502E1020E546FDF50116AE850595D95
:1014B000596F11505A595A6F09DBEE52DFCFEFFFC7
:1014C000380E626F020E636F58B10DD0DF5017E017
:1014D00056C1F6FF57C1F7FF562B000E57230800E1
:1014E000F5504DDBF3D7DF500AE056C1E9FF57C195
:1014F000EAFF562B000E5723EF5041DBF4D7E5529D
:10150000EFD2B7DBF9DAEE52EFCFDFFFDFCF10F02B
:10151000105001015E5D000E5F5902E25EC1DFFF07
:10152000DF50106E116AE8505E5D5E6F11505F59BA
:101530005F6F010EDB6ADF50F36E010EDBCFF4FF4D
:10154000F350F45C16E2010EDB50EA6A380FE96EE4
:10155000020EEA22EF50E66E5BC1E9FF5CC1EAFFD2
:101560005B2B000E5C23E552E750EF6E010EDB2A89
:10157000E2D7000ED8805E55000E5F550DE2CDDB40
:10158000C0DABADAEF50400B03E15CDBC80E02D0E0
:1015900059DB880EEF6E12D087DA840EEF6E605141
:1015A000611107E005D061C1FAFF01016051F96ED8
:1015B000FADF01015D9F705101E1C3DE020EE15CC3
:1015C00002E2E16AE552E16E8BD281DB0101588FC4
:1015D000C7DADF6A03DB02E2A9DAFCD7648CDF6AD0
:1015E000030EDF5C02E2B2DAFBD7020EE66EE66AB9
:1015F000E66A420EE66E010E62DB649C0101080E93
:101600004E6F020E4F6F000E446F020E456F44C1C5
:1016100046F1476F32C241F1415102E1100E0BD049
:10162000010EE66EE66A410EE66E010EE66E010EF2
:1016300044DA0101200E406FE55252D2800E0201C1
:10164000305D38E10101C00E586F02013351030AC9
:101650001AE0010A09E0030A2BE10101940E566F1A
:10166000250E576F120E1ED0DFDA170EF626260E45
:10167000C5DA020E0101D1DAF5CF59F1030ECDDA48
:10168000F5CF5AF11200030E325D0FE2CDDA190EDA
:10169000F626260EB3DA56C1F6FF57C1F7FF08004B
:1016A000F5500101596F5A6B12000101586B12007D
:1016B0000101586B1200DDDA0201386B396B3051D1
:1016C0001F0B020A11E0030A0CE0010A1EE10101EE
:1016D000588F020138810101640517E10201388346
:1016E00014D00101588F11D00101588F020134BF6D
:1016F00002D0D4DA01D0D7DA4FDADDDA06E0E1D968
:10170000EF50040B02E0010E386F010158AF07D013
:10171000380E566F020E576F5881020E596F020E27
:10172000E15C02E2E16AE552E16EDAD10F0153A118
:101730000CD0E2D9EF50800807E1C8D9EF508408F7
:1017400003E1DAD98C0EEF6E5391629A1200608435
:10175000629864820101010E656F24DA750E5DEFF7
:101760000DF00101656B1EDA740EA7D964926094C6
:1017700062A402D06294FCD71200A9DA01012D0EF6
:101780006F6FFD0E661539E17E0E6615E8407F0B22
:10179000040DF3CF44F1F4CF45F1000E4427020EBF
:1017A000452344C146F145C147F14675A5D9EF50DF
:1017B0003C0BE842E8420D081EE1DF6A080EDF5CE0
:1017C00016E29AD9020EE926000ED3D9EF50E66E42
:1017D000DF50EA6A300FE96E020EEA22E552E75066
:1017E000EF6E8AD9A0DAEE2AEF22DF2AE7D784D972
:1017F0003ADA0AD807D023D805D0FD0E66150408BA
:1018000001E12CD8E5526CD10101546B706B736B04
:10181000746B686B556B5AD9EF9E4E7557D9EF9E16
:101820004E7510DAEF9E586B596B5A6B5D6B5E6BA1
:101830005F6B51D8B7D9030E40D914EF0AF0020EEE
:101840000101555D02E181EF0AF0556B685104E139
:101850002BD98C0EEF6E1200686B120038DA36D975
:10186000EF50400B01E0010EDF6E01014E75080ED6
:10187000405D0BE132C25CFF0F015C5103E00101EE
:10188000100E02D00101040E406F550513E11ED960
:1018900038D9F7DD020E0101545D03E117D9840E3A
:1018A00007D0DF5003E112D9C80E02D00FD9880E3D
:1018B000EF6E0FD05DAF0CD06051611107E005D025
:1018C00061C1FAFF01016051F96EFADF01015D9F0C
:1018D000556BE55205D102013051600BE842E842F8
:1018E000E842E842E842000901E0120031510C0AE6
:1018F00045E00B0A3FE00C0A31E0010A22E00B0A46
:101900001EE0020A1CE0030A18E0080A10E0010ABF
:101910000CE00F0A08E0030A01E012000101588FF1
:10192000080E406F12001EEF0BF0E5EF0AF0010108
:10193000410E566F010E576F0CD05BEF0BF0BFEFEF
:101940000CF034510101566F576B420E5627010EB1
:1019500057235881010E596F588F12000101588F7B
:1019600002013451EA6A420FE96E010EEA2232C2E4
:10197000EFFF120017D9020E5DEF0DF01200ABD889
:10198000050EE1260201320510E130511F0B00095E
:101990000CE10101588F030E0201315D04E10101E8
:1019A000010E646F02D00101646B0201325101E04B
:1019B00074D030511F0B020870E134510F0B000935
:1019C0006CE034510F0B020868E3200E0101405D0A
:1019D00064E1588F020134BF04D060D9DDD8E8D863
:1019E00003D061D9D9D8E8D8EA22020EEFCFDBFFC5
:1019F00022D9010B03E1000EDF9401D0DF8434BF54
:101A000002D04CD901D04FD9EA22DECFEEFFDDCF94
:101A1000EDFF030E315D0CE14ED907E034BF02D07B
:101A2000C7D801D0C9D8EA22EF82840E81D935D037
:101A3000DF7441D906E045D8EF9E43D8EF8C1DD91D
:101A400002D03FD8EF8CDF74F6D8020B02E133D915
:101A50000DE0020134BF02D0ABD801D0ADD8EA22EC
:101A6000EF923B0E106E55D908D902D03B0E51D9DA
:101A7000020134510F0B116A530F106E0F0E112219
:101A8000030E10C0DBFF040E11C0DBFF030EDBCF23
:101A9000E9FF040EDBCFEAFFEF90050EE15C02E206
:101AA000E16AE552E16E1CD038D9DDD822EF0EF0A4
:101AB000FE0EEA6ADB346AEF0EF0E66EE66A78EF55
:101AC0000EF0DECFE9FFDDCFEAFF12004EC1E9FFE5
:101AD0004FC1EAFF1200D9CFE6FFE1CFD9FF1200D4
:101AE000E552E7CFD9FF120034510F0BE96EEA6AD5
:101AF000D890E936EA36120044C1E9FF45C1EAFF51
:101B0000120011D9380EEE6E020EED6E1200FE0EAE
:101B1000EA6ADB3471EF0EF0FD0EDB50E824126E42
:101B2000FE0EDB50040DF35012241200DF50040DA2
:101B3000F3CFE9FFF4CFEAFF000EE926020EEA2216
:101B4000EE6AEE6AEE6AEE6ADF2A1200DF50DCD837
:101B5000EA22EF6ADF50D3D8EA22EF6ADF2A1200C6
:101B6000020EE66EE66AE66A540EE66E0F0E5FEF50
:101B70000EF0EA22EE50EFCFEAFFE96E1200E66EB9
:101B800062C1E9FF63C1EAFF622B000E6323E552E5
:101B9000E750EF6EDF061200EA22EECFDEFFEDCF58
:101BA000DDFF1200000EE66EE66AE66EE66A1200DF
:101BB00034510F0B7FEF0EF034510F0B84EF0EF00A
:101BC000112210C0DEFF11C0DDFF1200160E616E83
:101BD0000F019F0E5B6F7B0E606E1200DF50106E68
:101BE000116A0C0E105C000E11581200FE0EDBCFB5
:101BF000E6FFE6EC09F0E552E5521200F722090093
:101C0000F5CF56F10A00F5CF57F11200010EE66E3E
:101C1000E66A000EE66EE66A1200F76A5625F66E70
:101C20005751F722080012003251F66EF76AD89029
:101C3000F636F7361200D950020FE96EDACFEAFF16
:101C4000EF50120046C1E9FF47C1EAFF1200040D40
:101C5000F3CF10F0F4CF11F0000E1026020EB0DF1B
:101C6000840E98EF0EF05FD8300EEE6E020EED6E21
:101C7000120031DF020EE1261200020EE66EE66A65
:101C8000DECFE6FFDDCFE6FF050E5DEF0DF00CDFEA
:101C90008C0EEF6E1BDF840EEF6E120025DF480EF8
:101CA000E926010E120020DF4E0EE926010E120079
:101CB000FFDEB9EF0DF005DFEF50800B1200E66E8E
:101CC00034EC13F0106E050EE15E1050120003DFCD
:101CD000E6521200FE0BEA36E96E4E0EE926010EC0
:101CE0001200FE0BEA36E96E480EE926010E1200DC
:101CF00021EC12F0106E060EE15E10501200EA6A3E
:101D00006C0FE96E010E1200EA6A690FE96E010EAE
:101D10001200D7DEE850EF16120094DFEE52080EE4
:101D2000EF6E22EF0EF0020EE926000EEA221200FC
:101D3000C8DEE850EF121200020130511F0B0108FB
:101D400001E012003051600BE842E842E842E8420C
:101D5000E842010801E01200345103E0340501E0DB
:101D600012003151220A33E0030A26E0010A15E08D
:101D7000210A0DE0010A01E012000101F80E566F80
:101D8000000E576F080E596F5A6B588129D0010108
:101D9000F80E566F000E576F23D036C25EF137C271
:101DA0005FF10101400E5B6F020E5C6FD60E606F3B
:101DB000210E616F5D8F12000101CA0E566F020E77
:101DC000576F070E596F5A6BC10E586F120032C20F
:101DD000F3F00001F3A102D08A9C01D08A8C0101AA
:101DE000588F12000201CA6B4B0ECB6FCC6BCD6BC0
:101DF000CE6BCF6B080ED06F0001E76B1A0EE66E4C
:101E0000010EE66E05EC09F0E552E5521E0EE66E97
:101E1000020EE66E05EC09F0E552E5521DD900010F
:101E2000F16BF26B939CE86B120041D96CD9050EF3
:101E3000061801E1075002E0000E14D048D9000155
:101E4000EF51101804E1F051111801E105D93FD903
:101E50000001F151101805E1F251111802E1E86B8F
:101E6000ED6B010E29D123D90001E76BEF51F01181
:101E700002E1000E05D039D9EF50800B01E0010ED0
:101E800000092DE1FC0EDBCF10F02FD9EE52EF5000
:101E9000D880105405E229D9EE52FC0EEFCFDBFFBB
:101EA000E76BFC0EDB50E75D19E2E751EA6A4A0F87
:101EB000E96E020EEA22EF50E66EE751E76EFD0E84
:101EC000DBCFE9FFFE0EDBCFEAFFE750E926000E8D
:101ED000EA22E552E750EF6EE72BE3D7BDD80001C9
:101EE000E751EAD0E4D80001E85107E1E9D8FC0E57
:101EF000DBCFEDF0010EEE6FE86FDED00BD917E10E
:101F0000C0D8ECD802E111500BE0010EDBCFE9FFA5
:101F1000DB2A020EDBCFEAFF01E3DB2AEF50F1E11F
:101F2000CFD8DFCFEDF00001010EEE6FE86F030EAA
:101F3000E15C02E2E16AE552E16EBED0EBD818E165
:101F4000A0D8CCD802E111500CE0010EDBCFF6FF97
:101F5000DB2A020EDBCFF7FF01E3DB2A0800F55096
:101F6000F0E1AED8DFCFEDF00001EE6B010EE86FCF
:101F7000030EE15C02E2E16AE552E16E9DD097D882
:101F8000020EE1260001F151F21102E1000E08D02B
:101F9000F1C0E9FFF2C0EAFFEF50800B01E0010E53
:101FA000000953E1030EE85D01E1E86BE8514DE003
:101FB000020EE85D09E1E66A000EE66EE66A59D8AF
:101FC0000001030EE86F41D0E8053FE1400E106EBE
:101FD000116AED51105C000E115803E2400EDF6EE5
:101FE00002D0EDC0DFFFDF50ED5DED6F8A0EEB6FCD
:101FF000020EEC6F010EDFCFDBFFEE510BE1010EA5
:10200000DB5012E0E9C0F6FFEAC0F7FF0800F55028
:1020100041D8F5D7010EDB5007E0E9C0E9FFEAC07F
:10202000EAFFEF5037D8F6D70001ED5107E1400E37
:10203000DF5C02E1020E01D0030EE86FDFCFE6FFA6
:102040008A0EE66E020EE66E14D8020EE15C02E223
:10205000E16AE552E16E30D0400EE66E4A0EE66E61
:10206000020EE66EE66A46D8F3CFEFF0F4CFF0F05A
:102070001200010EE66E3ED8F3CFF1F0F4CFF2F08D
:102080001200DF6A40D8DE5206C0DEFF07C0DDFF67
:10209000DD521200EBC0E9FFECC0EAFFEF6EEB2B64
:1020A000000EEC23E92BEA23010EDB061200D9CF48
:1020B000E6FFE1CFD9FF1200E552E7CFD9FF1200CA
:1020C000FD0EDBCFE9F0FE0EDBCFEAF01200FB0ED7
:1020D000DBCF10F0FC0EDBCF11F01200DF2ADF5057
:1020E000106E116AFF0E10181200EFC0E9FFF0C069
:1020F000EAFF1200020EE66E29EC09F0106E050EE2
:10210000E15E10501200FD0EDBCF06F0FE0EDBCFBD
:1021100007F01200CCDF030EE1260001E8511200A7
:10212000E3D91100D8CFE4FFE0CFE4FFE46EDCD9BF
:10213000E550E5CFE0FFE5CFD8FF100004D869EC0B
:1021400008F0A8D8FCD70F0EC11202D816EF08F07D
:10215000BCD9E652BA8ABA98BA8E7E8A948294988A
:102160006D926D806D846C8A6D866B9A6D8A6D88B8
:102170006D8E19D8DF6ADF50106E116A400E105C48
:10218000000E115805E2DF50A9D9EF6ADF2AF3D714
:102190000001E06BE16BE36BE46B8B948A989494A1
:1021A0009398E55297D191D9E6527F6A938A939E8C
:1021B000240EAC6E900EAB6E710EAF6E020EB06E52
:1021C000080EB86EAE50DF6EE55284D17ED9FE0E99
:1021D000DB50AD6E7FD179D9040EE126D880000E98
:1021E00002014055C20E4155010E4255000E4355A5
:1021F0003CE340C2CAF241C2CBF242C2CCF243C27B
:10220000CDF2146A1B0E156EB70E166E176A14C047
:1022100004F015C005F0066E17C007F0CAC209F039
:10222000CBC20AF0CCC20BF0CDC20CF010EC13F014
:1022300004C010F005C011F006C012F007C013F082
:102240001006000E115A125A135A10C0DFFF010E69
:1022500011C0DBFF020E12C0DBFF030E13C0DBFF59
:10226000DF50AF6E010EDB50B06E040EE15C02E297
:10227000E16AE552E16E2ED128D9E652ABA205D033
:10228000AB98AE50DF6EAB8802D0AE50DF6EDF5041
:10229000E55220D18B948A98200E0101E76E4019F7
:1022A000E8AE02D0E73402D0E750405D5FE364500F
:1022B000020B01E0120001017F5115E1400EE66EB4
:1022C000A00EE66E000EE66E33EC0FF0E552E5521E
:1022D000E5520001E16FE850000805E20101010E3E
:1022E0007F6F0001E26B01017F5116E0AC50020BE1
:1022F00013E08B840001E251EA6AA00FE96E000E40
:10230000EA22EF50E66E62DFE5520001E22BE15176
:10231000E25D02E101017F6B9E50200B11E03F0E58
:102320000001E05D0DE28A88A7DFE66E0001E05162
:10233000D5D8E552E750EF6EE02BE051CFD8EF6AE9
:102340000001E85111E10001E05100080DE2E0C098
:10235000E6FF600EE66E000EE66E72EC0FF0E552E0
:10236000E552E5520001E06BBFEC0FF012000101F5
:102370008051811104E1100E806F270E816F80075C
:10238000000E815B64A207D0805181112EE18B7415
:102390008BB413D027D00101405102E18B9422D09D
:1023A000400502E18B8409D0020E405D02E18B847E
:1023B00019D0040E405D03E18B948A881200100E40
:1023C000405D06E10101805181110FE18B740AD05B
:1023D000200E405D0AE101018051811106E18B74FC
:1023E0008BA402D08A9812008A8812001200120070
:1023F000120012009CEF0EF01200F2EF0EF001013D
:1024000064051EE1010165051BE1F1DF6492010134
:10241000656B0001100EE56F0E0EE66FE507000E0E
:10242000E65BE551E611FAE16484080EE56F070EFC
:10243000E66FE507000EE65BE551E611FAE164940C
:10244000120043D8FD0EDBCF06F0FE0EDBCF07F007
:10245000050E061801E1075036E0E868061802E1AB
:102460007F0E07182FE0030E061801E1075028E041
:10247000020E061801E1075021E0010E061801E1E5
:1024800007501AE0740E061801E1075013E0750EAC
:10249000061801E107500CE0730E061801E1075021
:1024A00005E0720E06180FE107500DD0A1DF0BD02A
:1024B0009DDF09D09CDF07D0A0DF05D09DDF03D0D2
:1024C00099DF01D096DF010E05D0D9CFE6FFE1CF2D
:1024D000D9FF1200E552E7CFD9FF1200EA6A600F78
:1024E000E96E000EEA221200DACFE4FFE652E5526E
:1024F000E5CFDAFF12001E0EF66E100EF76E000E1C
:10250000F86E01010900F5507A6F0900F5507B6FF4
:1025100003E17A6701D03DD00900F550756F0900DD
:10252000F550766F0900F550776F09000900F550F6
:10253000E96E0900F550EA6E090009000900F5503E
:10254000786F0900F550796F09000900F6CF7CF12A
:10255000F7CF7DF1F8CF7EF175C1F6FF76C1F7FFB9
:1025600077C1F8FF0101785302E1795307E00900D0
:10257000F550EE6E7807F8E27907F9D77CC1F6FFDF
:102580007DC1F7FF7EC1F8FF01017A07000E7B5B7A
:10259000BFD712001201000202000008D8040A008E
:1025A00000010102000109024300020100C03209DA
:1025B00004000001020201000524001001042402AD
:1025C0000205240600010524010001070581030A14
:1025D000000109040100020A000000070502024090
:1025E0000000070582024000000403090410034EA6
:1025F000004500450043004900530054001A034EB3
:10260000004500450043004400750069006E006FFE
:1026100000200056003200A625E925ED25FD25FF06
:10262000036A026A016A006A200EE76ED8900436D7
:1026300005360636073600360136023603360950AF
:10264000005C0A5001580B5002580C50035809E323
:102650000950005E0A50015A0B50025A0C50035A9E
:10266000042AE72EE4D71200FE0EE3CFE9FFFF0EA7
:10267000E3CFEAFFE9CFF3FFEACFF4FFFB0EE3502D
:1026800003E1FC0EE35009E0FB0EE30602E2FC0E60
:10269000E306FD0EE350EE6EF1D71200000EF36E6E
:1026A00000EE00F0030E01D81200EA6002D0EE6ADC
:1026B000FCD7F350E9601200EE6AFCD711EE00F08F
:1026C00021EE00F0F86A0F9C7BEC12F003EC08F0AE
:1026D0009EEC10F0FBD71200FFFFFFFFFFFFFFFF94
:1026E000FFFFFFFFFFFFFFFFFFFFFFFFFFFFFFFFFA
:1026F000FFFFFFFFFFFFFFFFFFFFFFFFFFFFFFFFEA
:10270000FFFFFFFFFFFFFFFFFFFFFFFFFFFFFFFFD9
:10271000FFFFFFFFFFFFFFFFFFFFFFFFFFFFFFFFC9
:0200000400F00A
:020000040030CA
:0E0000000032211E0000810003C003E0034017
:020000040020DA
:08000000FFFFFFFFFFFFFFFF00
:00000001FF
